{
  "contractName": "SecureChain",
  "abi": [
    {
      "inputs": [],
      "stateMutability": "nonpayable",
      "type": "constructor"
    },
    {
      "anonymous": false,
      "inputs": [
        {
          "indexed": false,
          "internalType": "string",
          "name": "claimId",
          "type": "string"
        },
        {
          "indexed": false,
          "internalType": "enum SecureChain.ClaimStatus",
          "name": "status",
          "type": "uint8"
        }
      ],
      "name": "ClaimProcessed",
      "type": "event"
    },
    {
      "anonymous": false,
      "inputs": [
        {
          "indexed": false,
          "internalType": "string",
          "name": "claimId",
          "type": "string"
        },
        {
          "indexed": false,
          "internalType": "string",
          "name": "policyId",
          "type": "string"
        },
        {
          "indexed": false,
          "internalType": "address",
          "name": "user",
          "type": "address"
        },
        {
          "indexed": false,
          "internalType": "uint256",
          "name": "amount",
          "type": "uint256"
        }
      ],
      "name": "ClaimSubmitted",
      "type": "event"
    },
    {
      "anonymous": false,
      "inputs": [
        {
          "indexed": false,
          "internalType": "string",
          "name": "policyId",
          "type": "string"
        },
        {
          "indexed": false,
          "internalType": "address",
          "name": "user",
          "type": "address"
        },
        {
          "indexed": false,
          "internalType": "uint256",
          "name": "amount",
          "type": "uint256"
        }
      ],
      "name": "PolicyRecorded",
      "type": "event"
    },
    {
      "inputs": [],
      "name": "admin",
      "outputs": [
        {
          "internalType": "address",
          "name": "",
          "type": "address"
        }
      ],
      "stateMutability": "view",
      "type": "function",
      "constant": true
    },
    {
      "inputs": [
        {
          "internalType": "uint256",
          "name": "",
          "type": "uint256"
        }
      ],
      "name": "claimIds",
      "outputs": [
        {
          "internalType": "string",
          "name": "",
          "type": "string"
        }
      ],
      "stateMutability": "view",
      "type": "function",
      "constant": true
    },
    {
      "inputs": [
        {
          "internalType": "string",
          "name": "",
          "type": "string"
        }
      ],
      "name": "claims",
      "outputs": [
        {
          "internalType": "string",
          "name": "claimId",
          "type": "string"
        },
        {
          "internalType": "string",
          "name": "policyId",
          "type": "string"
        },
        {
          "internalType": "address",
          "name": "user",
          "type": "address"
        },
        {
          "internalType": "uint256",
          "name": "amount",
          "type": "uint256"
        },
        {
          "internalType": "enum SecureChain.ClaimStatus",
          "name": "status",
          "type": "uint8"
        },
        {
          "internalType": "string",
          "name": "reason",
          "type": "string"
        },
        {
          "internalType": "uint256",
          "name": "timestamp",
          "type": "uint256"
        }
      ],
      "stateMutability": "view",
      "type": "function",
      "constant": true
    },
    {
      "inputs": [
        {
          "internalType": "string",
          "name": "",
          "type": "string"
        }
      ],
      "name": "policies",
      "outputs": [
        {
          "internalType": "string",
          "name": "policyId",
          "type": "string"
        },
        {
          "internalType": "address",
          "name": "user",
          "type": "address"
        },
        {
          "internalType": "uint256",
          "name": "coverageAmount",
          "type": "uint256"
        },
        {
          "internalType": "bool",
          "name": "active",
          "type": "bool"
        },
        {
          "internalType": "uint256",
          "name": "timestamp",
          "type": "uint256"
        }
      ],
      "stateMutability": "view",
      "type": "function",
      "constant": true
    },
    {
      "inputs": [
        {
          "internalType": "uint256",
          "name": "",
          "type": "uint256"
        }
      ],
      "name": "policyIds",
      "outputs": [
        {
          "internalType": "string",
          "name": "",
          "type": "string"
        }
      ],
      "stateMutability": "view",
      "type": "function",
      "constant": true
    },
    {
      "inputs": [
        {
          "internalType": "string",
          "name": "_policyId",
          "type": "string"
        },
        {
          "internalType": "address",
          "name": "_user",
          "type": "address"
        },
        {
          "internalType": "uint256",
          "name": "_amount",
          "type": "uint256"
        }
      ],
      "name": "recordPolicy",
      "outputs": [],
      "stateMutability": "nonpayable",
      "type": "function"
    },
    {
      "inputs": [
        {
          "internalType": "string",
          "name": "_claimId",
          "type": "string"
        },
        {
          "internalType": "string",
          "name": "_policyId",
          "type": "string"
        },
        {
          "internalType": "uint256",
          "name": "_amount",
          "type": "uint256"
        }
      ],
      "name": "submitClaim",
      "outputs": [],
      "stateMutability": "nonpayable",
      "type": "function"
    },
    {
      "inputs": [
        {
          "internalType": "string",
          "name": "_claimId",
          "type": "string"
        },
        {
          "internalType": "enum SecureChain.ClaimStatus",
          "name": "_status",
          "type": "uint8"
        },
        {
          "internalType": "string",
          "name": "_reason",
          "type": "string"
        }
      ],
      "name": "processClaim",
      "outputs": [],
      "stateMutability": "nonpayable",
      "type": "function"
    },
    {
      "inputs": [],
      "name": "getPolicyCount",
      "outputs": [
        {
          "internalType": "uint256",
          "name": "",
          "type": "uint256"
        }
      ],
      "stateMutability": "view",
      "type": "function",
      "constant": true
    },
    {
      "inputs": [],
      "name": "getClaimCount",
      "outputs": [
        {
          "internalType": "uint256",
          "name": "",
          "type": "uint256"
        }
      ],
      "stateMutability": "view",
      "type": "function",
      "constant": true
    }
  ],
  "bytecode": "0x608060405234801561001057600080fd5b50336000806101000a81548173ffffffffffffffffffffffffffffffffffffffff021916908373ffffffffffffffffffffffffffffffffffffffff160217905550611ade806100606000396000f3fe608060405234801561001057600080fd5b506004361061009e5760003560e01c8063815ed1f911610066578063815ed1f914610189578063ba4611d9146101a5578063c3b5372f146101c3578063e59771d2146101df578063f851a440146101fd5761009e565b806325401d8e146100a35780632bc3a3c1146100d35780632f500f6c14610109578063490718d9146101395780634a7ba3e514610155575b600080fd5b6100bd60048036038101906100b8919061130c565b61021b565b6040516100ca91906115b3565b60405180910390f35b6100ed60048036038101906100e89190611166565b6102c7565b60405161010097969594939291906116f0565b60405180910390f35b610123600480360381019061011e919061130c565b6104e4565b60405161013091906115b3565b60405180910390f35b610153600480360381019061014e919061120e565b610590565b005b61016f600480360381019061016a9190611166565b610893565b604051610180959493929190611613565b60405180910390f35b6101a3600480360381019061019e919061128d565b610994565b005b6101ad610d2b565b6040516101ba9190611834565b60405180910390f35b6101dd60048036038101906101d891906111a7565b610d38565b005b6101e7610feb565b6040516101f49190611834565b60405180910390f35b610205610ff8565b6040516102129190611598565b60405180910390f35b6004818154811061022b57600080fd5b90600052602060002001600091509050805461024690611986565b80601f016020809104026020016040519081016040528092919081815260200182805461027290611986565b80156102bf5780601f10610294576101008083540402835291602001916102bf565b820191906000526020600020905b8154815290600101906020018083116102a257829003601f168201915b505050505081565b60028180516020810182018051848252602083016020850120818352809550505050505060009150905080600001805461030090611986565b80601f016020809104026020016040519081016040528092919081815260200182805461032c90611986565b80156103795780601f1061034e57610100808354040283529160200191610379565b820191906000526020600020905b81548152906001019060200180831161035c57829003601f168201915b50505050509080600101805461038e90611986565b80601f01602080910402602001604051908101604052809291908181526020018280546103ba90611986565b80156104075780601f106103dc57610100808354040283529160200191610407565b820191906000526020600020905b8154815290600101906020018083116103ea57829003601f168201915b5050505050908060020160009054906101000a900473ffffffffffffffffffffffffffffffffffffffff16908060030154908060040160009054906101000a900460ff169080600501805461045b90611986565b80601f016020809104026020016040519081016040528092919081815260200182805461048790611986565b80156104d45780601f106104a9576101008083540402835291602001916104d4565b820191906000526020600020905b8154815290600101906020018083116104b757829003601f168201915b5050505050908060060154905087565b600381815481106104f457600080fd5b90600052602060002001600091509050805461050f90611986565b80601f016020809104026020016040519081016040528092919081815260200182805461053b90611986565b80156105885780601f1061055d57610100808354040283529160200191610588565b820191906000526020600020905b81548152906001019060200180831161056b57829003601f168201915b505050505081565b60008054906101000a900473ffffffffffffffffffffffffffffffffffffffff1673ffffffffffffffffffffffffffffffffffffffff163373ffffffffffffffffffffffffffffffffffffffff161461061e576040517f08c379a0000000000000000000000000000000000000000000000000000000008152600401610615906117d4565b60405180910390fd5b600073ffffffffffffffffffffffffffffffffffffffff166002846040516106469190611581565b908152602001604051809103902060020160009054906101000a900473ffffffffffffffffffffffffffffffffffffffff1673ffffffffffffffffffffffffffffffffffffffff1614156106cf576040517f08c379a00000000000000000000000000000000000000000000000000000000081526004016106c690611814565b60405180910390fd5b60006002811115610709577f4e487b7100000000000000000000000000000000000000000000000000000000600052602160045260246000fd5b6002846040516107199190611581565b908152602001604051809103902060040160009054906101000a900460ff166002811115610770577f4e487b7100000000000000000000000000000000000000000000000000000000600052602160045260246000fd5b146107b0576040517f08c379a00000000000000000000000000000000000000000000000000000000081526004016107a790611794565b60405180910390fd5b816002846040516107c19190611581565b908152602001604051809103902060040160006101000a81548160ff0219169083600281111561081a577f4e487b7100000000000000000000000000000000000000000000000000000000600052602160045260246000fd5b0217905550806002846040516108309190611581565b9081526020016040518091039020600501908051906020019061085492919061101c565b507fd25eec920256518809d8b34d9d3d0de6ff4f7334a225a3453db91c9662a5ec0e838360405161088692919061166d565b60405180910390a1505050565b6001818051602081018201805184825260208301602085012081835280955050505050506000915090508060000180546108cc90611986565b80601f01602080910402602001604051908101604052809291908181526020018280546108f890611986565b80156109455780601f1061091a57610100808354040283529160200191610945565b820191906000526020600020905b81548152906001019060200180831161092857829003601f168201915b5050505050908060010160009054906101000a900473ffffffffffffffffffffffffffffffffffffffff16908060020154908060030160009054906101000a900460ff16908060040154905085565b3373ffffffffffffffffffffffffffffffffffffffff166001836040516109bb9190611581565b908152602001604051809103902060010160009054906101000a900473ffffffffffffffffffffffffffffffffffffffff1673ffffffffffffffffffffffffffffffffffffffff1614610a43576040517f08c379a0000000000000000000000000000000000000000000000000000000008152600401610a3a906117b4565b60405180910390fd5b600073ffffffffffffffffffffffffffffffffffffffff16600284604051610a6b9190611581565b908152602001604051809103902060020160009054906101000a900473ffffffffffffffffffffffffffffffffffffffff1673ffffffffffffffffffffffffffffffffffffffff1614610af3576040517f08c379a0000000000000000000000000000000000000000000000000000000008152600401610aea90611774565b60405180910390fd5b6040518060e001604052808481526020018381526020013373ffffffffffffffffffffffffffffffffffffffff16815260200182815260200160006002811115610b66577f4e487b7100000000000000000000000000000000000000000000000000000000600052602160045260246000fd5b815260200160405180602001604052806000815250815260200142815250600284604051610b949190611581565b90815260200160405180910390206000820151816000019080519060200190610bbe92919061101c565b506020820151816001019080519060200190610bdb92919061101c565b5060408201518160020160006101000a81548173ffffffffffffffffffffffffffffffffffffffff021916908373ffffffffffffffffffffffffffffffffffffffff1602179055506060820151816003015560808201518160040160006101000a81548160ff02191690836002811115610c7e577f4e487b7100000000000000000000000000000000000000000000000000000000600052602160045260246000fd5b021790555060a0820151816005019080519060200190610c9f92919061101c565b5060c08201518160060155905050600483908060018154018082558091505060019003906000526020600020016000909190919091509080519060200190610ce892919061101c565b507f689a5e46db0ef6a23356a210c7fabb965f4aa4463ce79b125dba5b0b0ca0496e83833384604051610d1e949392919061169d565b60405180910390a1505050565b6000600480549050905090565b60008054906101000a900473ffffffffffffffffffffffffffffffffffffffff1673ffffffffffffffffffffffffffffffffffffffff163373ffffffffffffffffffffffffffffffffffffffff1614610dc6576040517f08c379a0000000000000000000000000000000000000000000000000000000008152600401610dbd906117d4565b60405180910390fd5b600073ffffffffffffffffffffffffffffffffffffffff16600184604051610dee9190611581565b908152602001604051809103902060010160009054906101000a900473ffffffffffffffffffffffffffffffffffffffff1673ffffffffffffffffffffffffffffffffffffffff1614610e76576040517f08c379a0000000000000000000000000000000000000000000000000000000008152600401610e6d906117f4565b60405180910390fd5b6040518060a001604052808481526020018373ffffffffffffffffffffffffffffffffffffffff16815260200182815260200160011515815260200142815250600184604051610ec69190611581565b90815260200160405180910390206000820151816000019080519060200190610ef092919061101c565b5060208201518160010160006101000a81548173ffffffffffffffffffffffffffffffffffffffff021916908373ffffffffffffffffffffffffffffffffffffffff1602179055506040820151816002015560608201518160030160006101000a81548160ff02191690831515021790555060808201518160040155905050600383908060018154018082558091505060019003906000526020600020016000909190919091509080519060200190610faa92919061101c565b507fb837b50d9ba7c18ca2e64cbcfa756fa9f47b3c3649285e9822abf8343cd6b627838383604051610fde939291906115d5565b60405180910390a1505050565b6000600380549050905090565b60008054906101000a900473ffffffffffffffffffffffffffffffffffffffff1681565b82805461102890611986565b90600052602060002090601f01602090048101928261104a5760008555611091565b82601f1061106357805160ff1916838001178555611091565b82800160010185558215611091579182015b82811115611090578251825591602001919060010190611075565b5b50905061109e91906110a2565b5090565b5b808211156110bb5760008160009055506001016110a3565b5090565b60006110d26110cd84611880565b61184f565b9050828152602081018484840111156110ea57600080fd5b6110f5848285611944565b509392505050565b60008135905061110c81611a6a565b92915050565b60008135905061112181611a81565b92915050565b600082601f83011261113857600080fd5b81356111488482602086016110bf565b91505092915050565b60008135905061116081611a91565b92915050565b60006020828403121561117857600080fd5b600082013567ffffffffffffffff81111561119257600080fd5b61119e84828501611127565b91505092915050565b6000806000606084860312156111bc57600080fd5b600084013567ffffffffffffffff8111156111d657600080fd5b6111e286828701611127565b93505060206111f3868287016110fd565b925050604061120486828701611151565b9150509250925092565b60008060006060848603121561122357600080fd5b600084013567ffffffffffffffff81111561123d57600080fd5b61124986828701611127565b935050602061125a86828701611112565b925050604084013567ffffffffffffffff81111561127757600080fd5b61128386828701611127565b9150509250925092565b6000806000606084860312156112a257600080fd5b600084013567ffffffffffffffff8111156112bc57600080fd5b6112c886828701611127565b935050602084013567ffffffffffffffff8111156112e557600080fd5b6112f186828701611127565b925050604061130286828701611151565b9150509250925092565b60006020828403121561131e57600080fd5b600061132c84828501611151565b91505092915050565b61133e816118d7565b82525050565b61134d816118e9565b82525050565b61135c81611932565b82525050565b600061136d826118b0565b61137781856118bb565b9350611387818560208601611953565b61139081611a45565b840191505092915050565b60006113a6826118b0565b6113b081856118cc565b93506113c0818560208601611953565b80840191505092915050565b60006113d96014836118bb565b91507f436c61696d20616c7265616479206578697374730000000000000000000000006000830152602082019050919050565b60006114196017836118bb565b91507f436c61696d20616c72656164792070726f6365737365640000000000000000006000830152602082019050919050565b6000611459601d836118bb565b91507f5573657220646f6573206e6f74206f776e207468697320706f6c6963790000006000830152602082019050919050565b60006114996022836118bb565b91507f4f6e6c792061646d696e2063616e20706572666f726d2074686973206163746960008301527f6f6e0000000000000000000000000000000000000000000000000000000000006020830152604082019050919050565b60006114ff6015836118bb565b91507f506f6c69637920616c72656164792065786973747300000000000000000000006000830152602082019050919050565b600061153f6014836118bb565b91507f436c61696d20646f6573206e6f742065786973740000000000000000000000006000830152602082019050919050565b61157b81611928565b82525050565b600061158d828461139b565b915081905092915050565b60006020820190506115ad6000830184611335565b92915050565b600060208201905081810360008301526115cd8184611362565b905092915050565b600060608201905081810360008301526115ef8186611362565b90506115fe6020830185611335565b61160b6040830184611572565b949350505050565b600060a082019050818103600083015261162d8188611362565b905061163c6020830187611335565b6116496040830186611572565b6116566060830185611344565b6116636080830184611572565b9695505050505050565b600060408201905081810360008301526116878185611362565b90506116966020830184611353565b9392505050565b600060808201905081810360008301526116b78187611362565b905081810360208301526116cb8186611362565b90506116da6040830185611335565b6116e76060830184611572565b95945050505050565b600060e082019050818103600083015261170a818a611362565b9050818103602083015261171e8189611362565b905061172d6040830188611335565b61173a6060830187611572565b6117476080830186611353565b81810360a08301526117598185611362565b905061176860c0830184611572565b98975050505050505050565b6000602082019050818103600083015261178d816113cc565b9050919050565b600060208201905081810360008301526117ad8161140c565b9050919050565b600060208201905081810360008301526117cd8161144c565b9050919050565b600060208201905081810360008301526117ed8161148c565b9050919050565b6000602082019050818103600083015261180d816114f2565b9050919050565b6000602082019050818103600083015261182d81611532565b9050919050565b60006020820190506118496000830184611572565b92915050565b6000604051905081810181811067ffffffffffffffff8211171561187657611875611a16565b5b8060405250919050565b600067ffffffffffffffff82111561189b5761189a611a16565b5b601f19601f8301169050602081019050919050565b600081519050919050565b600082825260208201905092915050565b600081905092915050565b60006118e282611908565b9050919050565b60008115159050919050565b600081905061190382611a56565b919050565b600073ffffffffffffffffffffffffffffffffffffffff82169050919050565b6000819050919050565b600061193d826118f5565b9050919050565b82818337600083830152505050565b60005b83811015611971578082015181840152602081019050611956565b83811115611980576000848401525b50505050565b6000600282049050600182168061199e57607f821691505b602082108114156119b2576119b16119e7565b5b50919050565b7f4e487b7100000000000000000000000000000000000000000000000000000000600052602160045260246000fd5b7f4e487b7100000000000000000000000000000000000000000000000000000000600052602260045260246000fd5b7f4e487b7100000000000000000000000000000000000000000000000000000000600052604160045260246000fd5b6000601f19601f8301169050919050565b60038110611a6757611a666119b8565b5b50565b611a73816118d7565b8114611a7e57600080fd5b50565b60038110611a8e57600080fd5b50565b611a9a81611928565b8114611aa557600080fd5b5056fea2646970667358221220304c11af798958ce6b500c06dfcc0388b31ae82543bc38a3f272323538f20b8564736f6c63430008000033",
  "immutableReferences": {},
  "source": "// SPDX-License-Identifier: MIT\npragma solidity ^0.8.0;\n\ncontract SecureChain {\n    enum ClaimStatus { PENDING, APPROVED, REJECTED }\n\n    struct Policy {\n        string policyId;\n        address user;\n        uint256 coverageAmount;\n        bool active;\n        uint256 timestamp;\n    }\n\n    struct Claim {\n        string claimId;\n        string policyId;\n        address user;\n        uint256 amount;\n        ClaimStatus status;\n        string reason; // For rejection or specific notes\n        uint256 timestamp;\n    }\n\n    address public admin;\n    mapping(string => Policy) public policies;\n    mapping(string => Claim) public claims;\n    string[] public policyIds;\n    string[] public claimIds;\n\n    event PolicyRecorded(string policyId, address user, uint256 amount);\n    event ClaimSubmitted(string claimId, string policyId, address user, uint256 amount);\n    event ClaimProcessed(string claimId, ClaimStatus status);\n\n    modifier onlyAdmin() {\n        require(msg.sender == admin, \"Only admin can perform this action\");\n        _;\n    }\n\n    constructor() {\n        admin = msg.sender;\n    }\n\n    function recordPolicy(string memory _policyId, address _user, uint256 _amount) public onlyAdmin {\n        require(policies[_policyId].user == address(0), \"Policy already exists\");\n        \n        policies[_policyId] = Policy({\n            policyId: _policyId,\n            user: _user,\n            coverageAmount: _amount,\n            active: true,\n            timestamp: block.timestamp\n        });\n        \n        policyIds.push(_policyId);\n        emit PolicyRecorded(_policyId, _user, _amount);\n    }\n\n    function submitClaim(string memory _claimId, string memory _policyId, uint256 _amount) public {\n        require(policies[_policyId].user == msg.sender, \"User does not own this policy\");\n        require(claims[_claimId].user == address(0), \"Claim already exists\");\n        \n        claims[_claimId] = Claim({\n            claimId: _claimId,\n            policyId: _policyId,\n            user: msg.sender,\n            amount: _amount,\n            status: ClaimStatus.PENDING,\n            reason: \"\",\n            timestamp: block.timestamp\n        });\n        \n        claimIds.push(_claimId);\n        emit ClaimSubmitted(_claimId, _policyId, msg.sender, _amount);\n    }\n\n    function processClaim(string memory _claimId, ClaimStatus _status, string memory _reason) public onlyAdmin {\n        require(claims[_claimId].user != address(0), \"Claim does not exist\");\n        require(claims[_claimId].status == ClaimStatus.PENDING, \"Claim already processed\");\n        \n        claims[_claimId].status = _status;\n        claims[_claimId].reason = _reason;\n        \n        emit ClaimProcessed(_claimId, _status);\n    }\n\n    function getPolicyCount() public view returns (uint256) {\n        return policyIds.length;\n    }\n\n    function getClaimCount() public view returns (uint256) {\n        return claimIds.length;\n    }\n}\n",
  "sourcePath": "D:\\secure-chain-claims\\blockchain\\contracts\\SecureChain.sol",
  "compiler": {
    "name": "solc",
    "version": "0.8.0+commit.c7dfd78e.Emscripten.clang"
  },
  "schemaVersion": "3.4.16",
  "updatedAt": "2026-03-24T04:30:46.409Z",
  "networkType": "ethereum",
  "devdoc": {
    "kind": "dev",
    "methods": {},
    "version": 1
  },
  "userdoc": {
    "kind": "user",
    "methods": {},
    "version": 1
  }
}